:020000040800F2
:10000000E0060024B1020008D12800087F2700087C
:100010007D2800083F08000829390008000000007A
:10002000000000000000000000000000152B000888
:100030004108000800000000D3280008E52B000854
:10004000CF020008CF020008CF020008CF0200084C
:10005000CF020008CF020008CF020008CF0200083C
:10006000CF020008CF020008CF020008CF0200082C
:10007000CF020008CF020008CF020008CF0200081C
:10008000CF020008CF020008CF020008CF0200080C
:10009000CF020008CF020008CF020008CF020008FC
:1000A000CF020008CF020008CF020008CF020008EC
:1000B000CF020008CF020008CF020008CF020008DC
:1000C000CF020008CF020008CF020008CF020008CC
:1000D000CF0200081D390008CF020008CF02000837
:1000E000CF020008CF02000800000000CF02000885
:1000F000CF020008CF020008CF020008CF0200089C
:10010000CF020008CF020008CF020008CF0200088B
:10011000CF020008CF020008CF020008CF0200087B
:10012000CF020008CF020008CF020008CF0200086B
:10013000CF020008CF020008CF020008CF0200085B
:1001400000000000000000000000000000000000AF
:10015000CF020008CF020008CF020008CF0200083B
:10016000CF020008CF020008CF020008CF0200082B
:10017000CF020008CF020008CF02000800000000F4
:10018000CF020008CF020008CF020008CF0200080B
:10019000CF020008CF020008CF020008CF020008FB
:1001A000CF020008CF020008CF020008CF020008EB
:1001B000CF020008CF020008CF020008CF020008DB
:1001C000CF020008CF020008CF020008CF020008CB
:1001D000CF020008CF020008CF020008CF020008BB
:1001E000CF020008CF020008CF020008CF020008AB
:1001F000CF020008CF020008CF020008CF0200089B
:10020000CF020008CF020008CF020008CF0200088A
:10021000CF020008CF020008CF020008CF0200087A
:10022000CF020008CF020008CF0200080000000043
:10023000CF020008CF02000800000000CF02000833
:10024000CF020008CF020008CF020008CF0200084A
:10025000CF020008CF020008CF020008CF0200083A
:10026000CF020008CF020008CF020008CF0200082A
:10027000CF020008CF020008CF02000800000000F3
:10028000CF020008CF020008CF02000800000000E3
:1002900000000000CF020008DFF810D000F04EFA96
:1002A0000048004725420008AFF30080E006002424
:1002B000074880470748804707480047FEE7FEE7B2
:1002C000FEE7FEE7FEE7FEE7FEE7FEE7FEE7FEE706
:1002D00049080008E92B0008990200082DE9F05FA1
:1002E0000546002092469B468846064681464024A5
:1002F0001BE0284641464746224600F057F8534641
:100300005A46C01A914110D311461846224600F0B1
:100310003EF82D1A67EB01084F46224601200021C6
:1003200000F035F817EB00094E41201EA4F101043E
:10033000DFDC484631462A464346BDE8F09FD2B24C
:1003400001E000F8012B491EFBD270470022F6E7BE
:1003500010B513460A4604461946FFF7F0FF20463B
:1003600010BD30B50B46014600202022012409E0D3
:1003700021FA02F59D4205D303FA02F5491B04FA5E
:1003800002F52844151EA2F10102F1DC30BD202A3D
:1003900004DB203A00FA02F1002070479140C2F1DC
:1003A000200320FA03F3194390407047202A04DB0E
:1003B000203A21FA02F00021704721FA02F3D040DE
:1003C000C2F1200291400843194670472DE9FE4FC3
:1003D000804681EA0300C00F0C46009021F00041E6
:1003E00023F00045B8EB0200A94105D24046214662
:1003F00090461C460B46024623F00040104347D06F
:10040000270DC7F30A00C3F30A510290401A019066
:1004100040286BDAC3F3130040F4801B0098924627
:1004200020B10023D2EB030A63EB0B0B0198594672
:10043000C0F140025046FFF7AAFF06460D4650465F
:100440005946019A00F08CF910EB08006141002434
:1004500087EA115284EAE7731A4340D0009A62B3E4
:10046000019A012A4FEA075215DC001B61EB0201D9
:100470004FF0004202EA0752CDE90042001C41F56C
:10048000801132462B4600F08CF903B0BDE8F08FA6
:1004900040462146F9E7001B61EB0201001C41F5D3
:1004A000801300185B412018A2F5001747EB0301E9
:1004B00040EAD570B6196D4111E06D084FEA360675
:1004C00045EAC0754FEA0752001B61EB0201001CB0
:1004D00041F5801149084FEA300000195141324678
:1004E0002B4603B0BDE8F04F00F04CB90098012254
:1004F00040000023D0EB020263EBE073009821463A
:100500004FEAE074B8EB000061EB0401E9E783F027
:1005100000435BE781F0004158E72DE9FE4F81EA97
:10052000030404F0004421F0004100944FF0000B5C
:1005300023F0004350EA01045ED052EA03045BD08A
:10054000C3F30A54C1F30A552C44A4F2F3340194C2
:10055000A0FB0254C1F3130141F48011C3F3130350
:1005600043F4801301FB024400FB034E840A970A04
:1005700044EA815447EA8357A4FB076802958D0A31
:1005800005FB07854FEA932C04FB0C542705029DBD
:100590004FEA065847EA1637B5EB08056EEB070C2D
:1005A000870E920E47EA811742EA8312A7FB0201E7
:1005B000B6EB0B0164EB00042B0D43EA0C335E1821
:1005C00044EB1C50DA465146E7FB0201C5F3130425
:1005D0004FEA0B3343EA14534FEA0432019C43EAD7
:1005E0000603A4F10C040294009CCDE900B400F0D1
:1005F000D8F803B0BDE8F08F00200146F9E72DE9F7
:10060000F04D81EA030404F0004B21F0004514464C
:100610004FF0000A23F0004150EA050220D054EACE
:1006200001021DD0C5F30A570246C5F31303C1F3F7
:100630001300C1F30A5640F4801543F48013A7EB6E
:100640000608101BD64608F2FD3873EB050002D3EE
:1006500008F1010801E092185B41B8F1000F03DADC
:1006600000200146BDE8F08D00204FF480110646C1
:1006700084460EE0171B73EB050705D3121B63EBD3
:10068000050306434CEA010C49084FEA3000921872
:100690005B4150EA0107EDD152EA030012D082EA31
:1006A000040083EA0501084305D0101BAB4106D2C4
:1006B0000122002306E000224FF0004302E06FF029
:1006C000010253101AEB06004CEB085110EB0A0024
:1006D00041EB0B01BDE8F04D00F054B8C1F30A52F4
:1006E000C1F3130140F2FF3341F480119A4202DA60
:1006F00000200146704740F233439A42A2F233424F
:1007000002DC5242FFF752BEFFF741BE30B5041E75
:1007100071F1000404DB4FF00044404264EB01013E
:10072000141E73F1000405DB1C464FF000435242D7
:1007300063EB0403994208BF904230BD064C074D5D
:1007400006E0E06840F0010394E8070098471034A1
:10075000AC42F6D3FFF7A4FD404300086043000815
:10076000202A06DBCB17203A41FA02F043EAE07375
:1007700006E041FA02F3D040C2F120029140084362
:100780001946704710B5141E73F1000408DA401CB6
:1007900041F1000192185B411A4301D120F00100A0
:1007A00010BD2DE9F04D92469B4611B1B1FA81F290
:1007B00002E0B0FA80F220329046FFF7E8FD0446EE
:1007C0000F4640EA0A0041EA0B0153465A460843E5
:1007D00013D0114653EA010019D0C8F14002504627
:1007E000FFF7E4FD05460E46504659464246FFF7E0
:1007F000CEFD084305D0012004E020463946BDE87F
:10080000F08D0020054346EAE0762C4337430A98F2
:100810006305E40AA0EB08000022FD0A44EA4754FD
:100820000A3002D500200146E9E7010510196941A7
:10083000DDE9084500196941BDE8F04DA2E7FEE792
:10084000704772B6FEE7000005480549083902689E
:1008500042F00202026008688004FCD57047000084
:100860000C4802582DE9F84F044600F01BFC00909C
:100870003CB194F83500022806D080216165002043
:10088000E4E00120BDE8F88FC74DC74EC6491835D2
:1008900020683036DFF81483DFF814938842DFF8DD
:1008A00014A3DFF814B32ED0A8422CD0B0422AD023
:1008B000404528D0484526D0504524D0584522D020
:1008C000BD4A183290421ED0BC4A90421BD0BB4A4F
:1008D0001832904217D0B94A3032904213D0B74AFA
:1008E000483290420FD0B54A603290420BD0B34AA2
:1008F0007832904207D0B14A9032904203D0AF4A4A
:10090000A832904209D1026822F01E0202602068DB
:10091000426922F08002426103E0026822F00E0286
:10092000026027688F4238464DD0A8424BD0B04273
:1009300049D0404547D0484545D0504543D058451B
:1009400041D09D4A183290423DD09C4A90423AD0C4
:100950009A4A1832904236D0984A3032904232D079
:10096000964A483290422ED0944A603290422AD021
:10097000924A7832904226D0904A9032904222D0C9
:100980008E4AA83290421ED08D4A90421BD08C4A8B
:100990001432904217D08A4A2832904213D0884AA3
:1009A0003C3290420FD0864A503290420BD0844A5B
:1009B0006432904207D0824A7832904203D0804A13
:1009C0008C32974204D1206E026822F48072026059
:1009D00075492068884228D0A84226D0B04224D049
:1009E000404522D0484520D050451ED058451CD007
:1009F00071491831884218D07049884215D06F4922
:100A00001831884211D06D49303188420DD06B4980
:100A10004831884209D069496031884205D0674928
:100A20007831884201D065499031016821F0010197
:100A300001600EE000F036FB0099401A052808D945
:100A4000202262650321002084F8351084F83400E8
:100A500017E73868C007EDD1534A0121206890425A
:100A60002ED0A8422CD0B0422AD0404528D04845AC
:100A700026D0504524D0584522D04F4B18339842A9
:100A80001ED04E4B98421BD04C4B1833984217D077
:100A90004A4B3033984213D0484B483398420FD0DA
:100AA000464B603398420BD0444B7833984207D082
:100AB000424B9033984203D0404BA833984208D120
:100AC00094F85C703F23A06D07F01F07BB40836064
:100AD00007E094F85C30A06D03F01F0301FA03F304
:100AE0004360206890424DD0A8424BD0B04249D0DC
:100AF000404547D0484545D0504543D0584541D062
:100B00002D4A183290423DD02C4A90423AD02B4A7E
:100B10001832904236D0294A3032904232D0274A99
:100B2000483290422ED0254A603290422AD0234A41
:100B30007832904226D0214A9032904222D01F4AE9
:100B4000A83290421ED01E4A90421BD01C4A14323A
:100B5000904217D01A4A2832904213D0184A3C3299
:100B600090420FD0164A503290420BD0144A643251
:100B7000904207D0124A7832904203D0104A8C3209
:100B800090420BD1D4E919024260E06E30B10268A4
:100B900022F480720260D4E91C024260002084F8D2
:100BA000351084F834006DE6100002405800024011
:100BB0007000024088000240A00002401004024081
:100BC000085402582DE9F05F28B190F83510022939
:100BD00004D0802141650120BDE8F09F904C904BEE
:100BE0000168183C18338E4ADFF83C92A1428D4CC4
:100BF000DFF838E28E4FDFF83CB2DFF83CA28F4DD1
:100C00008F4E31D091422FD099422DD0A1422BD07E
:100C1000494529D0714527D0B94225D0DFF810C207
:100C20000CF1180C61451FD0DFF808C2ACF1600C64
:100C3000614519D0DFF8FCC1ACF1480C614513D017
:100C4000DFF8F0C1ACF1300C61450DD0DFF8E4C144
:100C5000ACF1180C614507D0594505D0514503D07A
:100C6000A94201D0B1422CD1DFF8B4C14FF0040841
:100C700080F83580ACF1180C61451DD091421BD035
:100C8000994219D0A14217D0494515D0714513D0CA
:100C9000B94211D06648183081420DD0654860389D
:100CA000814209D063484838814205D061483038D4
:100CB000814201D05F481838086820F001000860C0
:100CC000ABE0D1F800C02CF00E08DFF854C1C1F839
:100CD0000080ACF1180C0168614527D0914225D005
:100CE000994223D0A14221D049451FD071451DD042
:100CF000B9421BD0DFF838C10CF1180C614515D092
:100D0000DFF830C1ACF1600C61450FD0DFF824C1D1
:100D1000ACF1480C614509D0DFF818C1ACF1300CDA
:100D2000614503D0DFF80CC1ACF1180CD1F800C05C
:100D30002CF0010CC1F800C0DFF8E4804FF0010C8A
:100D40000168A8F11808414546D0914244D0994223
:100D500042D0A14240D049453ED071453CD0B94235
:100D60003AD0334A1832914236D0324A603A9142F0
:100D700032D0304A483A91422ED02E4A303A9142EF
:100D80002AD02C4A183A914226D0594524D05145B0
:100D900022D0A94220D0B1421ED02A4A91421BD073
:100DA000284A1432914217D0264A2832914213D051
:100DB000244A3C3291420FD0224A503291420BD009
:100DC000204A6432914207D01E4A7832914203D0C1
:100DD0001C4A8C32914218D1016E0A6822F480724A
:100DE0000A6090F85C20816D02F01F020CFA02F29A
:100DF0004A60D0E919124A60C16E31B10A6822F422
:100E000080720A60D0E91C124A600022016D80F8ED
:100E100035C080F8342001B188470020DCE60000AE
:100E20002800024058000240700002408800024042
:100E3000A00002407004024088040240A004024066
:100E4000B80402400854025870B5044600F02AF96C
:100E50000546601C02D004480078044400F022F9E2
:100E6000401BA042FAD370BD000000242DE9F84FCA
:100E700003247D4D00234FF001094FF0B04B4FF09C
:100E80000F0AE9E009FA03F73A4076D00E7906F046
:100E90000306012E01D0022E18D1D0F808C04FEA67
:100EA000430ECE6804FA0EF82CEA080C06FA0EF689
:100EB00046EA0C068660D0F804C00E792CEA070CCE
:100EC000C6F300169E4046EA0C0646600E79F643CD
:100ED000B6070BD0C6684FEA43088F6804FA08FCCF
:100EE00026EA0C0607FA08F73743C7600E7906F0C2
:100EF0000306022E12D1DE080F694FEA437C00EB95
:100F00008606B646366A4FEADC6C0AFA0CF807FA2F
:100F10000CF726EA08063743CEF820700F790668EA
:100F20004FEA430807F0030704FA08FC07FA08F73A
:100F300026EA0C06374307604E6816F4403F1CD083
:100F40004A4E376847F00207376036689F0706F059
:100F50000206009623F0030606F1B046B6463F0FA0
:100F6000D6F80864DFF808810AFA07FC404526EA4B
:100F70000C0603D14FF0000C41E06CE0DFF8F4C048
:100F8000604502D14FF0010C39E0DFF8ECC060455C
:100F900002D14FF0020C32E0DFF8E0C0604502D130
:100FA0004FF0030C2BE0DFF8D8C0604502D14FF0C2
:100FB000040C24E0DFF8CCC0604502D14FF0050CF2
:100FC0001DE0DFF8C4C0604502D14FF0060C16E00A
:100FD000DFF8B8C0604502D14FF0070C0FE0DFF832
:100FE000B0C0604502D14FF0080C08E0DFF8A4C0A3
:100FF000604502D14FF0090C01E04FF00A0C0CFAE9
:1010000007FC4CEA060CCEF808C44F68DBF8006019
:10101000FF0226EA020600D516435F46CBF80060C1
:10102000D1F804C0DBF804605FEA8C2C26EA0206E3
:1010300000D516437E606E684F6826EA0206BF033D
:1010400000D516436E602E684F6826EA0206FF033D
:1010500000D516432E605B1C0A6832FA03F67FF453
:1010600011AFBDE8F88F000080000058F44402582A
:10107000000002580004025800080258000C0258F0
:10108000001002580014025800180258001C0258A0
:1010900000200258002402580AB1816170470904F7
:1010A000FBE7000001488068704700000000002452
:1010B0000248816802781144816070470000002472
:1010C000032010B500F0D4F800F056FF0F4A104985
:1010D00014681368C4F3032203F00F038A5CC95C2D
:1010E00002F01F0201F01F01D0400A4A20FA01F16C
:1010F0001160094908600F2000F010F808B10120C4
:1011000010BD00F079F8002010BD0000184402580E
:1011100030430008100000240C00002470B50D4D71
:1011200004462878A0B14FF47A71B1FBF0F00A4977
:101130000968B1FBF0F000F0BBFF48B9102C07D2F2
:1011400000222146501E00F073F800206C6070BD34
:10115000012070BD000000240C000024154BF0B5E8
:10116000083B427813491A600B680A1F23F00103F9
:101170000B6043681360057BC67A827A437B2D0738
:10118000847B45EA0665C77B90F809C0067A90F82B
:1011900000E045EAC24040EA834040EA444040EA79
:1011A000074040EA0C2040EA460040EA0E00086092
:1011B000F0BD0000A0ED00E0BFF35F8F0448002108
:1011C0000368034A23F48033036070321160704770
:1011D00024ED00E0074A40F001000649703210603B
:1011E000086840F480300860BFF34F8FBFF36F8F03
:1011F0007047000024ED00E0054808B5016841F0A3
:1012000002010160006800F00200009008BD0000CB
:10121000F4440258002809DB410900F01F0289004C
:10122000012001F1E0219040C1F800017047000069
:101230000E4BF0B41B680D46C3F30223C3F107063F
:10124000042E00D90426191D072901D2002300E02D
:10125000DB1E012404FA06F19C40491E2940641E4D
:10126000994014402143F0BC02F072BB0CED00E049
:10127000064900F0070210B54FF6FF040868044B5A
:10128000204040EA02201843086010BD0CED00E049
:101290000000FA0510B500F029FE05490968054A65
:1012A000C1F30211515C01F01F01C84010BD0000E4
:1012B0002044025830430008494930B5484C0B1DC2
:1012C0000A68143409681D68246802F00303C5F332
:1012D0000012C1F30531C4F3CC04002914FB02F25F
:1012E00000EE102AF8EE400A75D03F4A9FED3D1AF5
:1012F000B7EE000A6BB1DFED3D1A012B01D0022BD6
:1013000064D002EE101A1168F8EE422A81EEA22A89
:1013100021E0334C283C23689B0612D5344B2468CB
:1013200001EE901A1168C4F3C104F8EE612AE3409B
:1013300001EE903AC1F30801F8EE611A81EEA22A9B
:101340000BE001EE901ADFED2B2A00BFF8EE611AD8
:10135000116882EEA12AC1F3080101EE901A11680A
:10136000F8EE611A40EE811A71EE800A62EE200AF0
:10137000C1F3462101EE101AB8EE411A31EE001AFF
:10138000C0EE811ABCEEE11A80ED001A1168C1F3BB
:10139000064101EE101AB8EE411A31EE001AC0EE05
:1013A000811ABCEEE11A80ED011A1168C1F30661E1
:1013B00001EE101AB8EE411A31EE000A80EE801AE2
:1013C000BCEEC10A80ED020A30BD04E001EE901AC5
:1013D000DFED092ABAE70021016041608160F3E78F
:1013E0002844025800000039384402580024744A46
:1013F0000090D0030024744C20BCBE4B494930B54A
:10140000484C0B1D0A681C3409681D68246802F0EA
:101410000303C5F30022C1F30551C4F3CC04002932
:1014200014FB02F200EE102AF8EE400A75D03F4A93
:101430009FED3D1AB7EE000A6BB1DFED3D1A012BAF
:1014400001D0022B64D002EE101A1168F8EE422A85
:1014500081EEA22A21E0334C283C23689B0612D55A
:10146000344B246801EE901A1168C4F3C104F8EEFD
:10147000612AE34001EE903AC1F30801F8EE611AE7
:1014800081EEA22A0BE001EE901ADFED2B2A00BFBD
:10149000F8EE611A116882EEA12AC1F3080101EE8B
:1014A000901A1168F8EE611A40EE811A71EE800A06
:1014B00062EE200AC1F3462101EE101AB8EE411A7D
:1014C00031EE001AC0EE811ABCEEE11A80ED001A6E
:1014D0001168C1F3064101EE101AB8EE411A31EE5F
:1014E000001AC0EE811ABCEEE11A80ED011A1168F3
:1014F000C1F3066101EE101AB8EE411A31EE000A8E
:1015000080EE801ABCEEC10A80ED020A30BD04E014
:1015100001EE901ADFED092ABAE70021016041606F
:101520008160F3E728440258000000394044025823
:101530000024744A0090D0030024744C20BCBE4B9D
:101540002DE9FE4F0546DFF8E48350F8081B002420
:10155000F64FC943019005F12800264608F12408FA
:10156000009008011DD4A86E50B1B0F5801F0CD0BA
:10157000B0F5001F0ED0B0F5401F1ED001240FE0C3
:10158000386840F40030386017E00198022101F01B
:10159000A1F903E00098022101F02CFA04000CD01C
:1015A00026462888C043C00523D4A86D05281ED22E
:1015B000DFE800F00C11161B1B00AA6ED8F8001013
:1015C00021F440111143C8F80010EAE7386840F4EC
:1015D0000030386009E00198002101F07BF903E058
:1015E0000098002101F006FA044674B100E00124DD
:1015F00026462888C043800528D4E86D80281ED060
:101600000CDC90B140280ED114E0AA6DD8F800107F
:1016100021F007011143C8F80010EAE7C02813D0F1
:10162000B0F5807F10D001240FE0386840F400301E
:10163000386009E00198002101F04CF903E00098BE
:10164000002101F0D7F904469CB126462888DFF82E
:10165000DC92C04309F12C0940052CD4D5F8A80030
:10166000B0F5800F20D00DDCA0B1B0F5001F0FD178
:1016700015E0EA6DD8F8001021F4E0711143C8F8C4
:101680000010E3E7B0F5C00F13D0B0F5000F10D095
:1016900001240FE0386840F40030386009E0019818
:1016A000002101F017F903E00098002101F0A2F9F0
:1016B00004467CB126462888C04300052DD4D5F8C1
:1016C000AC00B0F1007F21D00EDCA8B1B0F1807F7A
:1016D00010D116E0D5F8A820D9F8001021F4600147
:1016E0001143C9F80010E6E7B0F1407F13D0B0F124
:1016F000806F10D001240FE0386840F4003038606B
:1017000009E00198002101F0E5F803E000980021CC
:1017100001F070F9044674B126462868C043800180
:101720001FD4E86CD8B110280FD0202812D0302850
:1017300015D0012414E0D5F8AC20D9F8001021F020
:10174000E0611143C9F80010E7E7386840F4003061
:10175000386004E00198022101F0BCF8044674B13D
:1017600026462888C043C0042BD4286EB0F5005FFD
:1017700020D00DDCA0B1B0F5805F0FD115E06B4833
:10178000EA6C2030016821F0300111430160E8E784
:10179000B0F5405F13D0B0F5804F10D001240FE0BA
:1017A000386840F40030386009E00198002101F009
:1017B00091F803E00098002101F01CF904468CB177
:1017C00026462888C043800429D4686EB0F5403F7F
:1017D00023D010DC08B3B0F5803F14D0B0F5003F43
:1017E0000FD115E02A6ED8F8001021F4E041114322
:1017F000C8F80010E5E7B0F5802F0ED0B0F5A02FA7
:101800000BD001240AE00198012101F063F803E004
:101810000098012101F0EEF8044694B1264628888C
:10182000C04340042AD4D5F8B000B0F1405F23D0C3
:1018300010DC08B3B0F1805F14D0B0F1005F0FD1BD
:1018400015E06A6ED8F8001021F4E0211143C8F8C1
:101850000010E4E7B0F1804F0ED0B0F1A04F0BD0F4
:1018600001240AE00198012101F034F803E0009816
:10187000012101F0BFF8044674B126462888C04310
:1018800000041FD4286FD8B1B0F1805F0ED0B0F142
:10189000005F10D0012414E0D5F8B020D9F8001072
:1018A00021F0E0411143C9F80010E7E7386840F43F
:1018B0000030386004E00198012101F00BF8044683
:1018C00074B126462868C043C0011ED4A86CD0B1AC
:1018D00001280ED0022811D0032814D0012413E0CF
:1018E0002A6FD8F8001021F040511143C8F80010B9
:1018F000E8E7386840F40030386004E001980221DD
:1019000000F0E8FF0446ACB126462868DFF81CB0BA
:10191000C043ABF11C0B400252D40548016841F4AE
:1019200080710160FFF7BEFB824611E02C44025833
:1019300000480258FA48AA6C016821F003011143DB
:101940000160E2E7FFF7AEFBA0EB0A00642835D8A0
:10195000F4480068C005F5D58CBBDFF8C4A3B5F822
:10196000B4100AF1240ADAF8000001F4407100F41E
:101970004070884211D0DAF80010DAF8002021F423
:10198000407142F48032CAF80020DAF8002022F4D4
:101990008032CAF80020CAF80010D5F8B400B0F5BB
:1019A000807F1AD1FFF77EFB029012E0FFF77AFBEF
:1019B0000299411A41F2883081420AD9032426460D
:1019C0002878DFF85CA3C0430AF1080AC00721D0D9
:1019D0003CE0DAF800008007E8D5D5F8B410C1F390
:1019E0000120032858460DD0016821F47C51016084
:1019F000B5F8B420DAF80010C2F30B021143CAF8AC
:101A00000010DDE7C84A036802EA111223F47C5192
:101A10001143ECE7E86F182816D005DCA0B10828C0
:101A200008D0102804D10AE020280DD028280BD097
:101A300001240AE00198012100F04CFF03E0009826
:101A4000012100F0D7FF044664B126462878C04340
:101A500080071ED4A86F062819D2DFE800F0160C04
:101A600011161616EA6FDAF8001021F0380111434A
:101A7000CAF80010EAE70198012100F02BFF03E00B
:101A80000098012100F0B6FF04467CB100E001247B
:101A900026462878C04340071FD4D5F8940006286E
:101AA00019D2DFE800F0160C11161616AA6FDAF834
:101AB000001021F007011143CAF80010E9E701986E
:101AC000012100F007FF03E00098012100F092FFE0
:101AD0000446A4B100E0012426462878C0438006CD
:101AE0002BD4D5F89000B0F1405F24D011DC10B3B6
:101AF000B0F1805F15D0B0F1005F10D116E0D5F8DD
:101B00009420D9F8001021F007011143C9F8001002
:101B1000E3E7B0F1804F0ED0B0F1A04F0BD001241D
:101B20000AE00198002100F0D5FE03E000980221B0
:101B300000F060FF044694B126462878C043400672
:101B40002BD4D5F89C00B0F5406F24D011DC10B335
:101B5000B0F5806F15D0B0F5006F10D116E0D5F854
:101B60009020DAF8001021F0E0411143CAF800108B
:101B7000E3E7B0F5805F0ED0B0F5A05F0BD0012495
:101B80000AE00198002100F0A5FE03E00098022180
:101B900000F030FF044694B126462878C043000682
:101BA0002BD4D5F8A000B0F5C04F24D011DC10B371
:101BB000B0F5005F15D0B0F5804F10D116E0D5F824
:101BC0009C20D9F8001021F4E0511143C9F800100D
:101BD000E3E7B0F5004F0ED0B0F5204F0BD0012455
:101BE0000AE00198002100F075FE03E00098022150
:101BF00000F000FF044654B126462878C043000791
:101C00001ED4D5F88400B0F5805F0AD00FE0D5F877
:101C1000A020D9F8001021F460411143C9F8001048
:101C2000EBE70098022100F0E5FE00B10126D5F8AF
:101C30008420DAF8001021F440511143CAF8001052
:101C40002878C043C00613D4D5F89800B0F5807F3B
:101C500005D10098022100F0CDFE00B10126D5F893
:101C60009820D9F8001021F440711143C9F80010F0
:101C70002868C043000316D4D5F8A40038B1B0F5E5
:101C8000803F09D0B0F5003F0BD001240AE0019855
:101C9000002100F01FFE03E00098022100F0AAFEE0
:101CA00004468CB126462868C043400322D4D5F8A8
:101CB0008800B0F5801F11D0B0F5001F13D0B0F52B
:101CC000401F15D0012414E0D5F8A420D9F8001045
:101CD00021F440311143C9F80010E4E7386840F4BA
:101CE0000030386004E00098012100F083FE0446D3
:101CF0005CB126462868C043C00323D4286DA8B130
:101D0000B0F5803F17D001241BE0D5F88820DAF821
:101D1000001021F440111143CAF80010EAE7000056
:101D20004C44025800480258CFFFFF00386840F486
:101D30000030386004E00198022100F0CBFD044639
:101D4000E4B126462868C043800005D400980221EB
:101D500000F050FE00B101262868C04380031BD468
:101D6000D5F88000B0B1B0F5807F0FD0B0F5007F1E
:101D700010D0B0F5407F0DD001240CE05A482A6DF8
:101D8000016821F4803111430160DBE7386840F4D9
:101D900000303860ECB326462868C043C00207D440
:101DA0006A6FD8F8001021F000411143C8F8001004
:101DB0002868C043C00008D4D5F8B820DBF800106C
:101DC00021F480411143CBF800102868C043800201
:101DD00007D4EA6ED8F8001021F080711143C8F8DA
:101DE00000102868C04340000CD4DBF8001021F438
:101DF0000041CBF80010DBF80010D5F8BC201143EF
:101E0000CBF800102868C04308D437486A6D0168D1
:101E100000E018E021F04051114301602868C04300
:101E2000000208D4D5F88C20DAF8001021F4400123
:101E30001143CAF8001028790024C04300F00100C3
:101E400020430AD00FE0D5F88020DAF8001021F402
:101E500040711143CAF800109EE70198002100F07C
:101E600039FD00B106462879C04300F00200204346
:101E700005D10198012100F02DFD00B10646287919
:101E8000C04300F00400204305D10198022100F076
:101E900021FD00B106462879C04300F00800204328
:101EA00005D10098002100F0A5FD00B10646287973
:101EB000C04300F01000204305D10098012100F03C
:101EC00099FD00B106462879C04300F02000044384
:101ED00004D10098022100F08DFD00B916B1012057
:101EE000BDE8FE8F0020FBE74C44025830B500F0FF
:101EF00043F80B4A0B490C4B15681468C5F30322D1
:101F000004F00F048A5C095D02F01F0201F01F015A
:101F1000D040064A20FA01F119601060084630BD31
:101F20001844025830430008100000240C0000241C
:101F300000B5FFF7DBFF05490968054AC1F3021147
:101F4000515C01F01F01C84000BD00001C44025854
:101F50003043000800B5FFF7C9FF05490968054A85
:101F6000C1F30221515C01F01F01C84000BD000017
:101F70001C44025830430008454970B5454809687B
:101F8000434B103B11F0380208D00111082A03D04E
:101F9000102A0BD0182A0BD0084670BD1968890684
:101FA000FBD51968C1F3C101C84070BD3A4870BD86
:101FB0003749374D18310C1D24350A6809682668E1
:101FC0002D6802F0030406F00102C1F30511C5F308
:101FD000CC0515FB02F200EE102AB8EE400AE9B378
:101FE0002F4ADFED2E0AB7EE001A6CB1DFED2D1A85
:101FF000012C01D0022C43D002EE101A1068F8EE2A
:10200000422A81EEA22A1EE01C68A40611D51B6894
:1020100001EE901A1168C3F3C103F8EE612AD840AB
:1020200001EE900AC1F30800F8EE611A81EEA22ACF
:102030000BE001EE901ADFED1C2A00BFF8EE611AEA
:10204000106882EEA12AC0F3080001EE900AF8EEB3
:10205000611A40EE201A31EE810A00E015E022EE0E
:10206000000A1068C0F34620401C00EE900AF8EE0B
:10207000600A80EE201ABCEEC10A10EE100A70BD94
:1020800001EE901ADFED092AD8E7002070BD0000AC
:10209000104402580090D00340787D0100000039C0
:1020A000304402580024744A0024744C20BCBE4BB7
:1020B000401EB0F1807F10B501D3012010BD4FF05C
:1020C000E02460610F21601701F042FC0020A06154
:1020D0000721216110BD30B590F88410012918D076
:1020E000012280F884202421C0F8881000222024B6
:1020F00001680B680D6823F0005325F001050D60A1
:10210000426601680B60C0F8884080F88420104661
:1021100030BD022030BD7047704770B5044690F85E
:10212000840001281DD0012284F884202420C4F8D2
:10213000880020680568026822F0010202602068B9
:10214000826822F060620A438260204600F0C8FD87
:102150002268202100201560C4F8881084F88400CB
:1021600070BD022070BD70B5044690F8840001284F
:102170001DD0012284F884202420C4F8880020681F
:102180000568026822F0010202602068826822F07D
:1021900060420A438260204600F0A2FD22682021AE
:1021A00000201560C4F8881084F8840070BD0220F7
:1021B00070BD7047704770472DE9F04107680025F2
:1021C000044640F60F030226F8693968BA681842D7
:1021D0000AD183067ED501F0200302F0805C53EA29
:1021E0000C0377D0616F7EE1D44BDFF854C313400A
:1021F00001EA0C0C53EA0C0C6CD05FEAC07C0CD0EA
:102200005FEAC15C09D54FF0010CC7F820C0D4F8D3
:10221000907047F00107C4F89070870709D5D70779
:1022200007D027683E62D4F8906046F00406C4F8F0
:10223000906046070AD5D60708D0276804263E6274
:10224000D4F8906046F00206C4F8906006070CD5FA
:1022500001F020061E4308D0266808233362D4F814
:10226000903043F00803C4F8903003050BD54B01C0
:1022700009D526684FF400633362D4F8903043F0F8
:102280002003C4F89030D4F89030002B3DD0800665
:1022900009D501F0200002F08051084303D0616F9E
:1022A00009B1204688472168D4F89000896849061A
:1022B00002D410F0280F2AD0204600F0F5FD206847
:1022C000806840061ED52068083050E8001F21F0C5
:1022D000400100E021E040E80012002AF3D1D4F8E8
:1022E000800078B197490165D4F88000FEF76AFC58
:1022F00000280AD0D4F88000016D00E02046BDE837
:10230000F04108472046FFF756FFBDE8F081204620
:10231000FFF751FFC4F89050F7E7D4F86CC02023C2
:10232000BCF1010F7ED15FEAC06C7BD55FEAC16C66
:1023300078D51020386220688068400673D5D4F8BC
:10234000802081491068884234D07F491831884202
:1023500030D07D49303188422CD07B494831884289
:1023600028D079496031884224D077497831884231
:1023700020D07549903188421CD07349A8318842D9
:1023800018D07249884215D070491831884211D04E
:102390006E49303188420DD06C494831884209D0AD
:1023A0006A496031884205D068497831884201D055
:1023B0006649903140684FF480770004000C40D0AB
:1023C000B4F85C1081423CD9A4F85E00D069B842F0
:1023D0002FD0216851E8000F20F4807041E80002FE
:1023E000002AF6D12068083050E8001F21F00101D2
:1023F00040E80012002AF5D12068083050E8001F9C
:1024000021F0400140E80012002AF5D1C4F88C30D8
:10241000E566206850E8001F21F0100140E8001236
:10242000002A01E04AE019E0F3D1D4F88000FEF779
:1024300019FA2667B4F85C00B4F85E10401A81B24D
:1024400008E0B4F85C1081427FF466AFD069B8420E
:10245000FAD126672046FFF75EFE56E7B4F85C0027
:10246000B4F85E10B4F85E20401A81B2002AF4D0AD
:102470000029F2D0226852E8000F20F4907042E860
:102480000007002FF6D1324F206800F1080050E815
:10249000002F02EA070240E8002CBCF1000FF3D144
:1024A000C4F88C30E5666567226852E8000F20F0BA
:1024B000100042E80003002BF6D1CAE7C60209D596
:1024C000560207D54FF4801038622046BDE8F0412F
:1024D000FFF770BE06060AD501F0800602F400027E
:1024E000164304D0A16F00297FF408AF0DE7420620
:1024F00011D54A060FD52046016851E8002F22F079
:10250000400241E80024002CF6D1C0F888308567ED
:1025100000F034F9F9E6020206D54A0004D5204657
:10252000BDE8F041FFF745BEC00196D5002994DA19
:102530002046BDE8F041FFF7EFBD000001000010AC
:1025400020010004972E00081000024010040240F1
:10255000FEFFFFEF10B5040003D0D4F8880010B1DF
:1025600007E0012010BD002084F88400204600F020
:1025700027F82420C4F888002068016821F00101B0
:102580000160A06A10B1204600F0CCFB204600F0AC
:102590001DFF0128E6D02068416821F49041416088
:1025A0002068816821F02A0181602068016841F07B
:1025B000010101602046BDE8104000F017BC00009A
:1025C00010B5B6B00446142130A8FDF7BFFEC021F7
:1025D0006846FDF7BBFE1D492068884233D10020C4
:1025E0001F9001210446CDE900106846FEF7A8FFC0
:1025F00008B1FEF726F91648016841F010010160A4
:10260000006800F01000359011481038016841F062
:1026100002010160006830AB022100F00200359039
:102620004FF44040042283E813000A4830A9CDE962
:102630003342FEF71BFC002225201146FEF7F8FD71
:102640002520FEF7E7FD36B010BD00000010014068
:10265000F04402580004025830B4D0F88C30202BDB
:1026600002D0022030BC7047A9B1A2B10B4D0024AA
:102670000368C466AB420BD05B681B0208D50468D4
:1026800054E8003F43F0806344E80035002DF6D164
:1026900030BC01F071B80120E4E70000000C0058E4
:1026A00006480068064A074B506011780846401CEF
:1026B0001070054801221944FFF7CEBF080000241E
:1026C00014000024DC0100241C0000242DE9F84340
:1026D0000446D0F88800984616460D46202802D0B9
:1026E0000220BDE8F883A5B19EB10021C4F8901086
:1026F0002120C4F888001834FEF7D4FC814654F831
:10270000100CA687E6872027183CB0F5805F02D022
:1027100003E00120E5E7206910B12E46002510E016
:1027200000260EE08021204601F0AEF8C0B9DEB1EF
:1027300016F8010B21688862B4F85600401EA4F810
:102740005600B4F856004B464FF00002CDF800801A
:102750000028E7D14FF04001204601F095F848B13C
:10276000C4F888700320BCE735F8020B2168C0F379
:102770000800E0E7C4F888700020B2E77047FEE781
:1027800030B587B014216846FDF7E0FD1F480168A9
:1027900041F004010160016801F004010591016844
:1027A00041F080010160016801F08001059101683C
:1027B00041F001010160016801F00101059101682A
:1027C00041F00201016000680122114D042100F076
:1027D000020005902846FEF75FFC002228460821EB
:1027E000FEF75AFC0024694603200294CDE9000458
:1027F0002846FEF73BFB0C2001218DE813006946BB
:1028000028460394FEF732FB07B030BDE04402587F
:10281000000002581848002110B5164C0C224FF445
:10282000E1330460C0E90131C160C0E90412816193
:10283000C161016241628162FFF78CFE08B1FEF75F
:1028400000F80D480021FFF78EFC08B1FDF7F9FFF5
:1028500009480021FFF761FC08B1FDF7F2FF0648C7
:10286000FFF739FC002803D0BDE81040FDF7E9BFB1
:1028700010BD0000001001401C000024FEE7000015
:1028800010B50D4C2278002A15D00C4801686068FC
:10289000401D81420AD9042A08D9022008A100F06B
:1028A0003BF922780420084900F06AF90749002022
:1028B00020700548886510BD14000024080000241D
:1028C00052583A2564000000DC0100241C0000245A
:1028D000FEE770472DE9F047454D044689464FF025
:1028E000000A2868C04380070AD0414E283E30685D
:1028F00020F080603060FEF7D5FB0746B04608E068
:102900000120BDE8F08700BFFEF7CCFBC01B02280A
:1029100067D8D8F800000001F6D4206829684FF481
:10292000FE0721F47C313E0241EA00302860207A23
:10293000A389B4F804C040022D4D2D495B1E227CB2
:10294000ACF1010C1035091DA0F5007080B2521ECB
:10295000CCF3080C07EA034340EA0C00184306EAEC
:102960000262104328600868626920F0C0001043CA
:1029700008600A68A06922F0200202430A60281D4C
:102980000A6822F010020A6002684FF6F873E469E0
:102990009A4342EAC40202600868B9F1000F40F0AD
:1029A00010020A6011D00868B9F1010F11D040F48B
:1029B00000100860D8F80000444640F08060C8F875
:1029C0000000FEF76FFB05460DE0086840F40020AC
:1029D000EFE740F48010ECE7FEF764FB401B0228B1
:1029E00001D903208DE720680001F5D5504688E71E
:1029F000284402582DE9F047454D044689464FF0DA
:102A0000000A2868C04380070AD0414E283E30683B
:102A100020F080503060FEF745FB0746B04608E0E6
:102A20000120BDE8F08700BFFEF73CFBC01B022879
:102A300067D8D8F800008000F6D4208829684FF4C1
:102A4000FE0721F07C713E0241EA00502860207AA6
:102A5000A389B4F804C040022D4D2D495B1E227C91
:102A6000ACF1010C1835091DA0F5007080B2521EA2
:102A7000CCF3080C07EA034340EA0C00184306EACB
:102A80000262104328600868626920F440601043C5
:102A900008600A68A06922F4007202430A60281DD7
:102AA0000A6822F480720A6002684FF6F873E469DB
:102AB0009A4342EAC40202600868B9F1000F40F488
:102AC00080720A6011D00868B9F1010F11D040F08E
:102AD00080700860D8F80000444640F08050C8F884
:102AE0000000FEF7DFFA05460DE0086840F48000BC
:102AF000EFE740F40000ECE7FEF7D4FA401B0228B1
:102B000001D903208DE720688000F5D5504688E77D
:102B100028440258704700000FB40C2810B512D892
:102B200088B101460AA001F0D3FB0E4804AA03991C
:102B300000F0FCFE0B4801F0CBFB0BA001F0C8FB42
:102B400010BC5DF814FB0AA001F0C2FBEDE7000029
:102B50006D61696E2E62617225642E7478743D22F7
:102B6000000000007801002422FFFFFF00000000A9
:102B70006D61696E2E74302E7478742B3D220000C6
:102B800070B50C2814460D460FD870B1014609A047
:102B900001F09EFB0C480A2322462946FFF796FDCA
:102BA000BDE8704009A001F093BB0AA001F090FBC2
:102BB000F0E700006D61696E2E62617225642E740B
:102BC00078743D22000000001C00002422FFFFFF5B
:102BD000000000006D61696E2E74302E7478742BC5
:102BE0003D220000FEF764BA3348F0B5334A01686D
:102BF00041F470010160106800F00F00072804D252
:102C0000106820F00F00C01D10602D4900202C4CD2
:102C100010340B682B4D43F001030B6020600B68F0
:102C20002B400B60136803F00F03072B04D91368C4
:102C300023F00F03DB1D1360214C234A1834234B70
:102C4000261D371D20601E4C214D28343060261D66
:102C50003860371D23603B1D35601C1D3A60251D03
:102C60002E1D1860331D22602860326018600A68CB
:102C7000134B184C22F4802260330A6018602068DD
:102C80006FF30F00B0F1005F03D213490120C1F8C8
:102C900008010B48D4300168C9040BD4026843F220
:102CA000D2010E4B42F4805202601960016821F497
:102CB00080510160F0BD000088ED00E0002000526E
:102CC000004402587FEDF6EA800201010002020290
:102CD0000000FF010010005C008000510040005225
:102CE00030B5416EB9B101680D4B03F108048A6833
:102CF0008968C2F34262490F5D5C615C2D01B5FBDE
:102D0000F1F1A0F86A10995CA25C0901B1FBF2F143
:102D1000A0F8681030BD0121A0F86A10F8E70000A3
:102D20002043000890F82810090706D50168836B36
:102D30004A6822F400421A434A6090F82810C907F2
:102D400006D00168C36A4A6822F400321A434A6016
:102D500090F82810890706D50168036B4A6822F4A9
:102D600080321A434A6090F82810490706D5016856
:102D7000436B4A6822F480221A434A6090F8281074
:102D8000C90606D50168C36B8A6822F480521A43CB
:102D90008A6090F82810890606D50168036C8A6855
:102DA00022F400521A438A6090F82810490611D57F
:102DB0000168436C4A6822F480121A434A60416CED
:102DC000B1F5801F06D10168836C4A6822F4C00205
:102DD0001A434A6090F82810090606D50168C26CAB
:102DE000486820F400201043486070472DE9F843FC
:102DF00000250446C0F89050FEF754F9804620683C
:102E000020266FF07E470068000713D50022434656
:102E100031042046009700F037FD58B1216851E891
:102E2000000F20F0800041E80002002AF6D1C4F82B
:102E3000886021E020680068400722D500224346D0
:102E40004FF480012046009700F01EFDC8B12068B5
:102E500050E8001F21F4907140E80012002AF6D1DA
:102E60002068083050E8001F21F0010140E80012FE
:102E7000002AF5D1C4F88C60032084F88450BDE8A2
:102E8000F883C4F88860C4F88C60E5662567002084
:102E900084F88450F3E710B5806B0021A0F85E1031
:102EA000FFF789F910BD000010B5026852E8001F55
:102EB00021F4907142E80013002BF6D10E4B02680A
:102EC000083252E8001F194042E80014002CF6D1E5
:102ED000C16E012908D1026852E8001F21F01001DB
:102EE00042E80013002BF6D100212022C0F88C20EC
:102EF000C166416710BD0000FEFFFFEF10B5D0F8BE
:102F00008C10B0F860202229016804D0886940F054
:102F10000800886110BD496A836D11401980816D78
:102F2000891C8165B0F85E10491EA0F85E10B0F8EB
:102F30005E100029EED1016851E8002F22F4907252
:102F400041E80023002BF6D10168083151E8002F39
:102F500022F0010241E80023002BF5D1184B00219B
:102F600002682024C0F88C40416701679A420BD068
:102F70005268120208D5036853E8002F22F08062DD
:102F800043E80024002CF6D1C26E012A02D0FFF7DC
:102F900087FB10BDC166026852E8001F21F01001D6
:102FA00042E80013002BF6D10168CA69D243D20669
:102FB00001D410220A62B0F85C10FFF7ACF810BD23
:102FC000000C00582DE9F04704460068C569D0F8A8
:102FD00000A0D0F80890D4F88C10B4F860602229D2
:102FE00005D0816941F008018161BDE8F087B4F83E
:102FF00068704FF0000844E02068A16D406A3040DE
:103000000880A06D801CA065B4F85E00401EA4F886
:103010005E002068C569690730D0E9070AD05FEA19
:10302000CA5107D501210162D4F8900040F0010097
:10303000C4F89000A8070BD55FEAC97008D02168D2
:1030400002200862D4F8900040F00400C4F8900018
:1030500068070BD55FEAC97008D0216804200862B0
:10306000D4F8900040F00200C4F89000D4F890002A
:1030700020B12046FFF79FF8C4F89080B4F85E00B6
:1030800000B30FB1A806B7D4B4F85E000028ACD0E6
:10309000B4F868108142A8D92068083050E8001FB1
:1030A00021F0805140E80012002AF5D12A486067DB
:1030B000216851E8000F40F0200041E80002002A9A
:1030C000F6D192E7216851E8000F20F4807041E8C2
:1030D0000002002AF6D1214A2068083050E8001F7B
:1030E000114040E80013002BF6D11D4A202321682F
:1030F0004046C4F88C30C4F87480C4F870809142A3
:103100000BD04968090208D5226852E8001F21F057
:10311000806142E80013002BF6D1E16E012903D053
:103120002046FFF7BDFAAFE7E066216851E8000FDF
:1031300020F0100041E80002002AF6D12068C169A1
:10314000C943C90601D410210162B4F85C102046BD
:10315000FEF7E1FF98E70000FD2E0008FEFFFFEFFD
:10316000000C005810B5D0F88C10B0F8602022295F
:10317000016804D0886940F00800886110BD496A80
:10318000836D11401970816D491C8165B0F85E1026
:10319000491EA0F85E10B0F85E100029EED102685A
:1031A00052E8001F21F4907142E80013002BF6D181
:1031B0000168083151E8002F22F0010241E80023A4
:1031C000002BF5D1184B002102682024C0F88C4058
:1031D000416701679A420BD05268120208D5026813
:1031E00052E8003F23F0806342E80034002CF6D11F
:1031F000C26E012A02D0FFF753FA10BDC166026801
:1032000052E8001F21F0100142E80013002BF6D114
:103210000168CA69D243D20601D410220A62B0F80A
:103220005C10FEF778FF10BD000C00582DE9F04748
:1032300004460068C569D0F800A0D0F80890D4F81A
:103240008C10B4F86060222905D0816941F0080132
:103250008161BDE8F087B4F868704FF0000844E081
:103260002068A16D406A30400870A06D401CA065C8
:10327000B4F85E00401EA4F85E002068C5696907C6
:1032800030D0E9070AD05FEACA5107D501210162AF
:10329000D4F8900040F00100C4F89000A8070BD5C6
:1032A0005FEAC97008D0216802200862D4F8900053
:1032B00040F00400C4F8900068070BD55FEAC970BD
:1032C00008D0216804200862D4F8900040F0020081
:1032D000C4F89000D4F8900020B12046FEF76BFFB0
:1032E000C4F89080B4F85E0000B30FB1A806B7D45C
:1032F000B4F85E000028ACD0B4F868108142A8D9B8
:103300002068083050E8001F21F0805140E800128A
:10331000002AF5D12A486067206850E8001F41F074
:10332000200140E80012002AF6D192E7216851E816
:10333000000F20F4807041E80002002AF6D1214AF3
:103340002068083050E8001F114040E80013002BAF
:10335000F6D11D4A202321684046C4F88C30C4F8B9
:103360007480C4F8708091420BD04968090208D576
:10337000226852E8001F21F0806142E80013002B10
:10338000F6D1E16E012903D02046FFF789F9AFE7B6
:10339000E066206850E8001F21F0100140E80012AC
:1033A000002AF6D12068C169C943C90601D4102199
:1033B0000162B4F85C102046FEF7ADFE98E700000D
:1033C00065310008FEFFFFEF000C00582DE9F043C7
:1033D00004468068D84E87B0D84B2168D4E90427CA
:1033E000D4F81CC010430A68002547EA0C0738438C
:1033F000324002430A602068E268416821F440518B
:10340000114341602268A1699A4201D0206A0143B8
:103410009768DFF82CC3CB4ECB4807EA0C070F4365
:1034200097602168676ACA6A22F00F023A43CA624B
:103430002268B2420ED1006800F03800182873D01C
:1034400047DCB8B3082879D010286FD178E0282855
:103450007ED17BE0BD498A4209D1006800F00700B7
:10346000062875D2DFE800F0546A6C6E7072B849B5
:103470008A4209D1006800F00700062868D2DFE818
:1034800000F0475D5F616365B2498A4209D1006817
:1034900000F0070006285BD2DFE800F03A505254F3
:1034A0005658AD498A420BD1006800F00700062843
:1034B0004ED200E010E0DFE800F02B4143454749E1
:1034C000A6498A420AD1006800F03800182839D08D
:1034D000B7DD2028BBD13CE001203AE0A0498A4278
:1034E00009D1006800F00700062831D2DFE800F0BB
:1034F0001026282A2C2E9B498A420BD1006800F006
:103500000700062824D2DFE800F003191B1D1F2145
:1035100000201EE09A421BD18B48001D006800F07D
:103520000700062814D202E00CE007E010E0DFE814
:1035300000F0030507090B0D02200AE0042008E053
:10354000082006E0102004E0202002E0402000E0F7
:1035500080208549DFF814829A42854A4FF400435F
:103560004FEA21174FF000064ED110281AD006DC82
:10357000022809D004280BD008287CD10DE020288F
:103580003ED0402877D13DE0FDF784FE014610E0B3
:103590006846FDF791FE01990BE003A8FDF72EFFA9
:1035A000049906E01068800605D51068C0F3C100D4
:1035B000C140002970D0606A676838F8102007EBB6
:1035C0004703B1FBF2F0834255D8B0EB073F52D826
:1035D000002308461946FCF781FE02467808130EC0
:1035E000120243EA012110183A4671410023FCF708
:1035F00075FE604AA0F5407191423CD821688FE089
:103600003946D8E71946D6E7D4F81CC04FF6EF790B
:103610009C4546D1082819D005DC58B101280CD0AA
:10362000042875D10DE0102815D0202835D0402869
:103630006ED134E0FEF77CFC01E0FEF78BFC014626
:1036400010E06846FDF738FE01990BE003A8FDF78E
:10365000D5FE049906E01068800604D51068C0F312
:10366000C100C140C1B1636A606838F81330B1FB72
:10367000F3F1490000E04BE001EB5001B1FBF0F049
:10368000A0F11001494543D84FF6F0732168C0F30B
:1036900042021840104343E043E03946E3E719464D
:1036A000E1E7082819D005DC58B101280CD004281E
:1036B0002ED10DE0102815D020282BD0402827D15E
:1036C0002AE0FEF735FC01E0FEF744FC014610E07D
:1036D0006846FDF7F1FD01990BE003A8FDF78EFEAA
:1036E000049906E01068800604D51068C0F3C10094
:1036F000C140B1B1636A606838F81330B1FBF3F1CF
:1037000001EB5001B1FBF0F0A0F11001494505D9E2
:10371000012506E03946EDE71946EBE7216880B25E
:10372000C8600120A4F86A00A4F86800284666670B
:10373000A66707B0BDE8F083F369FFCF000C00581F
:10374000FFF4FF11001001405444025800440040AF
:1037500000480040004C0040005000400014014070
:1037600000780040007C00400090D003084300082F
:1037700000440258FFFC0F0070B583680024816587
:103780004FF48056A0F85C20B342A0F85E204FF0C2
:10379000FF01446704D1036903BB40F2FF111DE040
:1037A0004FF07F05C3B1B3F1805F1AD0A0F860403D
:1037B0002221C0F89040C0F88C100168083151E80F
:1037C000003F43F0010341E80034002CF5D1416E85
:1037D000B1F1005F0CD02FE0036933B9A0F860109D
:1037E000E6E7016909B13F21F8E7A0F86050DFE79B
:1037F000B0F8681091421FD88168B14201D10169C7
:10380000B9B11D490269416742B1026852E8001F1F
:1038100041F4807142E80013002BF6D101680831B1
:1038200051E8002F42F0805241E80023002BF5D1EF
:1038300020E012494167F1E78168B14201D1016995
:1038400069B10F49026941675AB1016851E8002F17
:1038500042F4907241E80023002BF6D10AE00949B6
:103860004167026852E8001F41F0200142E800135E
:10387000002BF6D1002070BD2D320008C52F0008A6
:1038800065310008FD2E00082DE9F04799461746DE
:103890000D460446089E4FF0000833E0701C31D0FE
:1038A000FDF700FCA0EB0900B04218D8BEB12068BB
:1038B0000168490726D5802D24D0402D22D0C1692A
:1038C000C94309070DD4082505622046FFF7ECFA25
:1038D000C4F89050012084F88480BDE8F08703206C
:1038E000FBE7C069C04300050CD421684FF40060B9
:1038F00008622046FFF7D8FA2021C4F8901084F817
:103900008480ECE72068C06935EA000004D000201C
:10391000B842C3D00020E0E70120F9E70148FEF7F4
:103920004BBC00001C000024FEE7000037B5144625
:103930000846064B6A46214600F0ECF80446694604
:10394000002000F06AFC20463EBD00001B4200083B
:10395000090700284FEA116104DB00F1E02080F83C
:103960000014704700F00F0000F1E02080F8141DF3
:10397000704702E008C8121F08C1002AFAD1704738
:103980007047002001E001C1121F002AFBD17047DF
:103990002DE9FF5F82B00021DDE90430020DDDF882
:1039A00040B0034318D044F61050A2F2FF32424315
:1039B0001514119801281FD0A5EB0B00401C5FEADD
:1039C000000A4FF000064E4FDFF83891B0465046DF
:1039D00015D5CAF1000413E0119801244AA3012867
:1039E00001D16FEA0B010298119AC0E90031C0E9D8
:1039F000024206B0BDE8F09FCBF10000DFE70446CD
:103A00000021404A491842EB0450CDE9001012E071
:103A1000E00707D032463B4640464946FCF77DFD6D
:103A20008046894632463B4610461946FCF775FDEE
:103A300006460F466410002CEAD1DDE90401DDE9F9
:103A40000023BAF1000F06DAFCF767FD42464B4649
:103A5000FCF763FD05E0FCF7D2FD42464B46FCF760
:103A6000CEFD04460E460022284BFCF74FFE03D83D
:103A70004FF0FF30014607E00022254B204631463B
:103A8000FCF7A4FCFCF72AFE102409E0002C0ADB5A
:103A90000A220023FCF722FC039B30321A55641ED5
:103AA00050EA0102F2D1641C039AC4F111031444D8
:103AB000119A012A03D0012208430DD10AE00843DC
:103AC00004D000204FF0110B119072E7A3EB0B050F
:103AD0006D1E0DE05B4504DD4FF0000205F10105B0
:103AE00004E003DA4FF00002A5F10105002AECD052
:103AF00002981199C0E90231C0E9004579E7000058
:103B0000000014400000F03F300000000000F043CF
:103B10000000E03F2DE9FF4F95B09A4688460646E3
:103B20000025EEE1252877D100242746F94A012116
:103B3000039400E0044316F8013F203B01FA03F030
:103B40001042F7D130782A2811D06FF02F03307847
:103B5000A0F13002092A16D8039A44F0020402EBBD
:103B6000820203EB42021044761C0390EFE758F800
:103B7000042B0392002A03DA504244F400540390C9
:103B800044F00204761C30782E2816D116F8010F66
:103B900044F004042A280DD06FF02F023078A0F1F1
:103BA0003003092B09D807EB870302EB4303C7183F
:103BB000761CF3E758F8047B761C30786C280FD01D
:103BC00006DC4C2817D068280DD06A2814D104E0F0
:103BD000742810D07A280FD10DE044F400140AE0C4
:103BE00044F4801401E044F440147278824202D11B
:103BF00004F58014761C761C307866280BD013DC14
:103C0000582877D009DC002875D04528F6D04628FA
:103C1000F4D047281AD193E118E0632835D06428FE
:103C200079D0652812D18BE1702873D008DC672821
:103C3000F1D069286FD06E280DD06F2806D1ACE086
:103C400073282CD0752874D0782853D052461799F1
:103C500090476D1C54E1C4F30250022809D0032898
:103C60000DD0D8F8001004280DD00D6008F104081C
:103C700046E1D8F80010EA17C1E90052F6E7D8F893
:103C800000100D80F2E70D70F0E718F8041B8DF8B6
:103C9000001000208DF80100EB46012003E058F8E9
:103CA00004BB4FF0FF3061074FF0000102D40DE07C
:103CB00009F101018946B9420FDA8145F8DB1BF8A9
:103CC00009100029F4D108E009F101018946814277
:103CD000FADB1BF809100029F6D103985346A0EB34
:103CE000090721463846179A00F080FA284400EB6D
:103CF000090507E044E008E10DE01BF8010B52461E
:103D000017999047B9F10109F7D253462146384631
:103D1000179AF2E039E00A21C4F302524FF0000B87
:103D20000091022A06D058F8040BC117032A09D0C3
:103D30000AE023E008F1070020F00702F2E80201A0
:103D4000904605E000B2C117042A01D140B2C11764
:103D5000002906DA0A460021404261EB02012D22C9
:103D600002E0220504D52B228DF80420012203E075
:103D7000E20701D02022F7E7914657E00A2100E050
:103D800010214FF0000B00910BE010214FF0000BC1
:103D900044F004040827009103E008204FF0000BD2
:103DA0000090C4F30252022A05D058F8040B0021F7
:103DB000032A08D008E008F1070020F00702F2E823
:103DC0000201904603E080B2042A00D1C0B24FF055
:103DD000000922072AD53278702A07D0DDF800C002
:103DE0008CF0100C5CEA0B0C05D00EE040228DF834
:103DF0000420012208E050EA010306D030238DF8A8
:103E000004308DF8052002229146009B83F00803C0
:103E100053EA0B030AD150EA010201D1620705D52A
:103E200030228DF804204FF001097F1E3278582A85
:103E300004D039A20C920CAA02920BE03BA2F9E743
:103E40005B46009AFCF74AFA0C9B9B5C029A521E56
:103E50000292137050EA0102F2D1029804A9081AE2
:103E600000F1200B600702D524F4803400E0012724
:103E70005F4502DDA7EB0B0000E0002000EB0B012B
:103E8000009003984944401A0390E00306D4534637
:103E90002146179A039800F0A9F90544002706E087
:103EA00001A85246C05D179990476D1C7F1C4F4575
:103EB000F6DBE0030CD553462146179A039800F031
:103EC00095F9054404E030205246179990476D1C3F
:103ED0000099481E00900029F5DC08E0029802993C
:103EE00052460078491C0291179990476D1CBBF10E
:103EF0000001ABF1010BF1DC5BE100F065F9054479
:103F0000761C307800287FF40DAE19B02846BDE845
:103F1000F08F000009280100303132333435363754
:103F20003839616263646566000000003031323305
:103F300034353637383941424344454600000000A5
:103F4000600700D4062708F1070020F00700F0E81A
:103F50000223804603F0004C5FEA0C0001D097A0DA
:103F600009E0200501D596A005E0E00701D095A065
:103F700001E0AFF24C001390307823F00043652845
:103F80000CD006DC452809D046281DD047287FD113
:103F90003BE0662818D067287AD136E00021112F3F
:103FA00001DB112000E0781CCDE9000104A90CA878
:103FB000FFF7EEFCDDE90D010C9A4FF0000B07F165
:103FC0000109109200914EE04FF000400097CDE9BA
:103FD000011004A90CA8FFF7DBFCDDE90D020C9B26
:103FE0000F994FF0000B91461093009211B9791C74
:103FF00000EB0109B7EB090003D4C0F1FF3B07F167
:104000000109A9EB0700019042E0012F00DA012726
:104010000021112F01DD112000E03846CDE900011B
:1040200004A90CA8FFF7B4FCDDE90D010C9A00917E
:104030004FF0000BB946109221070FD4009A4A4561
:1040400003DA914601E0A9F10109B9F1010F05DD9B
:10405000109AA9F10101515C3029F4D0B84202DA7A
:1040600010F1040F03DA0121CDE9011010E000285E
:1040700003DC8344A9EB000102E0411C494500DD5B
:104080008946A0EB0B00401C01904FF000400290CD
:10409000200705D40198484502DB4FF0FF3001901E
:1040A00000208DF84B0002980DF14B07B0F1004F46
:1040B00025D002200C902B200D90029800280CDABD
:1040C000404202902D200D9007E00A210298FCF753
:1040D00048F93031029007F8011D0C99481E0C90E8
:1040E0000029F2DC02980028EFD1791E0D980870A3
:1040F000307800F0200040F0450007F8020D11A8CC
:10410000C01BC01D02901398007800B1012000EB85
:104110000901019801EBE071029801440398401AEB
:10412000401E0390E00306D453462146179A039895
:1041300000F05CF805441398007818B152461799BE
:1041400090476D1CE00323D553462146179A0398E8
:1041500000F04CF805441BE0BBF1000F07DB0098B2
:10416000584504DD1098179910F80B0001E01799D5
:1041700030205246904701980BF1010B401E05F18B
:104180000105019004D12E205246179990476D1CCD
:10419000B9F10001A9F10109DEDC05E017F8010B16
:1041A0005246179990476D1C0299481E02900029AB
:1041B000F4DC53462146179A03989EE62D00000032
:1041C0002B000000200000002DE9F04104460025EE
:1041D0001E461746880404D405E039462020B0471F
:1041E0006D1C641EF9D52846BDE8F0812DE9F0412B
:1041F000044600251E469046C80301D5302700E03E
:104200002027880404D505E041463846B0476D1C98
:10421000641EF9D52846BDE8F0810A68531C0B607E
:10422000107070471FB50024009401940294039409
:10423000FCF7C2FF01208DF80C001F218DF808103B
:1042400087228DF809208DF80D008DF80000684652
:104250008DF80A408DF80E408DF8014001948DF8DC
:104260000B408DF80F40FCF779FF0420FCF7B2FFFC
:10427000FCF726FFFEF784FAFEF7CCFA0B4A0C4B4C
:1042800011780846401C10700A4801221944FEF7B4
:10429000E3F9012008A1FEF73FFC0BA000F018F89D
:1042A000FEF7EEFA0A20FCF7CFFDF9E71400002430
:1042B000DC0100241C00002449742773204D792060
:1042C000476F2121212121005B496E69745D000047
:1042D0000FB40B4810B503AA0299FFF727FB084853
:1042E000002201E0521CD2B2815C0029FAD10449BB
:1042F0000A230448FEF7EAF910BC5DF814FB00003D
:10430000B00000241C00002401000200040006008C
:1043100008000A000C00100020004000800000018E
:104320000101010307010000080402040801010162
:10433000000000000102030401020304060708094B
:1043400060430008000000241C00000072390008CF
:104350007C4300081C000024C406000082390008C9
:104360000100000010000000000000000090D003D9
:0C4370000090D0030000000000000000DE
:040000050800029954
:00000001FF
